:020000040800F2
:1000000060390020910200089F420008B1350008C5
:100010009D420008512B0008195300080000000001
:10002000000000000000000000000000F9010008CE
:10003000532B0008000000003D0200082D49000875
:10004000AB020008AB020008AB020008AB020008DC
:10005000AB020008AB020008AB020008AB020008CC
:10006000AB020008AB020008AB020008AB020008BC
:10007000AB020008AB020008AB020008AB020008AC
:10008000AB020008AB020008AB020008AB0200089C
:10009000AB020008AB020008AB020008AB0200088C
:1000A000AB020008AB020008AB020008AB0200087C
:1000B00091490008AB020008ED4A0008AB020008B5
:1000C000AB020008AB020008AB020008AB0200085C
:1000D000AB02000849500008BD500008AB02000800
:1000E000AB020008AB020008AB02000800F002F807
:1000F00000F073F80AA090E8000C82448344AAF14F
:100100000107DA4501D100F068F8AFF2090EBAE84C
:100110000F0013F0010F18BFFB1A43F0010318473B
:10012000C4F00000E4F000000A444FF0000C10F8A6
:10013000013B13F0070408BF10F8014B1D1108BF65
:1001400010F8015B641E05D010F8016B641E01F805
:10015000016BF9D113F0080F1EBF10F8014BAD1C55
:100160000C1B09D16D1E58BF01F801CBFAD505E073
:1001700014F8016B01F8016B6D1EF9D59142D6D3CD
:10018000704700000023002400250026103A28BFF5
:1001900078C1FBD8520728BF30C148BF0B607047F9
:1001A00066290CF0E882642900F02881732900F0A8
:1001B0006687002070471FB501F040FA0400002058
:1001C00000210BF09DF9401C6060002000210BF025
:1001D00081F9E0601FBD10B510BD01F0F5FC1146BE
:1001E000FFF7E9FF06F024FF01F042FF03B4FFF739
:1001F000F2FF03BC05F080F9224B19680868B0E8EB
:10020000F00F80F30988BFF36F8F4FF0000080F389
:1002100011884EF00D0E704700000000064800687F
:10022000006880F3088862B661B6BFF34F8FBFF3F2
:100230006F8F00DF00BF00BF08ED00E0EFF3098023
:10024000BFF36F8F0F4B1A6820E9F00F106008B5ED
:100250004FF0500080F31188BFF34F8FBFF36F8FC3
:100260000AF0DAFA4FF0000080F31188BDE8084088
:1002700019680868B0E8F00F80F30988BFF36F8F42
:10028000704700BFA8010020EFF305807047000011
:100290000948804709480047FEE7FEE7FEE7FEE71A
:1002A000FEE7FEE7FEE7FEE7FEE7FEE70448054956
:1002B000054A064B7047000041490008ED00000860
:1002C0006034002060390020603600206036002055
:1002D000704710B54C1084EA530404D54042C1F174
:1002E000000138BF491E1B4204D55242C3F100032E
:1002F00038BF5B1E00F0ACFB14F0804F04D04042CE
:10030000C1F1000138BF491E14F0004F04D0524221
:10031000C3F1000338BF5B1E10BD00000FB40449D9
:1003200010B503AA029800F0AFFE10BC5DF814FBF4
:10033000A40100200FB41CB5074B06AA7B446946F4
:100340000090059800F071FE0020694600F080FEE4
:100350001CBC5DF814FB0000110D000070B50446D4
:1003600085690068C10601D5302600E02026C00757
:1003700007D070BDD4E9012130469047206A401C67
:1003800020626D1EF6D570BD70B504468569007893
:10039000C00707D170BDD4E9012120209047206A11
:1003A000401C20626D1EF6D570BD70B50C4605462A
:1003B000012A05D02878800600D5EA69002302E0EA
:1003C000012305E05B1C934202D2E05C0028F9D1D6
:1003D000A869E618C01AA861286A18442862284645
:1003E000FFF7BCFF04E0D5E9012114F8010B9047A9
:1003F000B442F8D32846FFF7C7FF70BD2DE9F0419E
:100400000646002410687529314616A510D0AFF3B2
:100410000080002802DA404213A507E031688A070D
:1004200001D512A502E0490704D511A5012401E078
:10043000AFF3008000210A2206F1240709E0B0FB97
:10044000F2FCB0FBF2F302FB1C003030785418468B
:10045000491C0028F3D123462A463046BDE8F04126
:1004600000F078BB000000002D0000002B00000011
:10047000200000002DE9F0474FF0000A89460446AD
:10048000C0F820A02046E1688847002876D02528BB
:1004900006D0D4E901219047206A401C2062F1E790
:1004A000E168204600258847C4F81CA006460027BE
:1004B000C4F818A02A2E09D0304605F016F838B333
:1004C00004EB8708303EC8F8186019E059F8041B9F
:1004D000204604EB87029161E1688847012F0646B8
:1004E00018D1E069002820DA25F020051DE0D8F8B1
:1004F000180000EB800006EB40003038C8F8180008
:100500002046E1688847064604F0EFFF0028EED158
:10051000012F0AD02E2E08D12046E16888477F1C83
:100520000646022F45F02005C4DBA069002803DA47
:10053000404245F00105A061E80701D025F0100513
:10054000B6B1A6F14100192802D8203645F400655D
:100550004A463146204625604D46FFF721FE58B1F8
:10056000012806D0ED1D25F0070000F1080989E7F4
:1005700004E005F1040985E730468AE7206ABDE812
:10058000F08700000FB400B58DB010A9099000915C
:100590000B904FF0FF300A9000200C9006487844F2
:1005A0000690064878446A4607900F9909A800F01B
:1005B000E3FF0DB05DF814FBF70F00000F10000013
:1005C0002DE9FF4F1C4691464FF0FF3581B00021C9
:1005D0008A468846D4E90167A16902986D1C88475C
:1005E000216A834688470028F6D1BBF1FF3F0CD033
:1005F000002F26F4C0661ADD700615D5BBF12B0F4F
:100600000AD0BBF12D0F0FD104E04FF0FF3005B041
:10061000BDE8F08F46F48066A16902986D1C88479A
:100620007F1E8346002F02DDBBF1300F03D0B9F1EE
:10063000000F2AD025E0A1696D1C02987F1E46F4A8
:1006400000768847002F834605DDBBF1780F06D082
:10065000BBF1580F03D0B9F1000F10D011E0B9F180
:10066000000F02D0B9F1100F0BD1A1696D1C0298D7
:100670007F1E26F4007688478346102000E008207D
:1006800081464FEAE970009017E00A20F8E74346F8
:10069000AAFB0928DDF800C07F1E03FB098046F491
:1006A000007605F101050AFB0C0112EB0B0A02981A
:1006B00041EBEB78A16988478346002F06DD494668
:1006C000584600F0F3FC5FEA000BE0D5E1690298C0
:1006D0008847B00502D46FF0010098E7F00718D101
:1006E000700610D55146700505D50023D1EB0301E6
:1006F00063EB080200E042462068031D23600068A7
:10070000C0E9001205E02068011D21600068C0E911
:1007100000A828467BE72DE9FF5F1D464FF0FF3B11
:1007200091464FF000085F46D5E90146A969019856
:100730007F1C8847296A824688470028F6D1BAF18B
:10074000FF3F0CD0002E24F4C06419DD600614D5E0
:10075000BAF12B0F09D0BAF12D0F0ED103E0584694
:1007600004B0BDE8F09F44F48064A96901987F1C3F
:100770008847761E8246002E02DDBAF1300F03D084
:10078000B9F1000F26D032E0A969761E01987F1CCE
:1007900044F400748847002E824605DDBAF1780FD4
:1007A00006D0BAF1580F03D0B9F1000F10D01EE0F7
:1007B000B9F1000F02D0B9F1100F18D1A969761E56
:1007C00001987F1C24F4007488478246102002E0C0
:1007D000082000E00A20814609E0A96908FB090811
:1007E000761E01987F1C44F4007488478246002ED0
:1007F00005DD4946504600F059FC0028EDDAE9696C
:1008000001988847A00502D46FF00100A8E7E0072F
:1008100025D1600613D5600502D5C8F1000000E0BF
:10082000404629680A1D2A600968220501D508701A
:1008300015E0220701D5088011E008600FE0286864
:10084000011D29600068210502D580F8008006E0BE
:10085000210702D5A0F8008001E0C0F800803846EA
:100860007EE730B505460B462A4613F8014B12F8D1
:10087000010B08B1A042F8D01CB1002802D06D1CB9
:10088000F1E7284630BD40EA010310B59B070FD1C0
:10089000042A0DD310C808C9121F9C42F8D020BAF0
:1008A00019BA884201D9012010BD4FF0FF3010BDA8
:1008B0001AB1D30703D0521C07E0002010BD10F876
:1008C000013B11F8014B1B1B07D110F8013B11F83C
:1008D000014B1B1B01D1921EF1D1184610BD10B562
:1008E000431C02E010F8011B71B18107FAD14FF0EF
:1008F000013202C88C1A8C4314EAC211F9D0C01A12
:100900000A0603D0C01E10BDC01A10BD0A0401D0D3
:10091000801E10BD0902FCD0401E10BD032A40F20B
:10092000308010F0030C00F0158011F8013BBCF191
:10093000020F624498BF11F801CB00F8013B38BFA9
:1009400011F8013BA2F1040298BF00F801CB38BFB7
:1009500000F8013B11F0030300F03E86083AC0F0B6
:10096000088051F8043B083A51F804CBA0E808107D
:10097000F5E7121D5CBF51F8043B40F8043BAFF3B0
:100980000080D20724BF11F8013B11F801CB48BF0A
:1009900011F8012B24BF00F8013B00F801CB48BF40
:1009A00000F8012B704702F0FF0343EA032242EAFA
:1009B000024200F002B84FF000020429C0F0128099
:1009C00010F0030C00F01B80CCF1040CBCF1020F02
:1009D00018BF00F8012BA8BF20F8022BA1EB0C01D7
:1009E00000F00DB85FEAC17C24BF00F8012B00F8CD
:1009F000012B48BF00F8012B70474FF0000200B5F3
:100A0000134694469646203922BFA0E80C50A0E831
:100A10000C50B1F12001BFF4F7AF090728BFA0E8DF
:100A20000C5048BF0CC05DF804EB890028BF40F8AB
:100A3000042B08BF704748BF20F8022B11F0804FED
:100A400018BF00F8012B7047704770477047704718
:100A500053EA020C00F069802DE9F04B4FF00006DC
:100A6000002B1FBFB3FA83F503FA05F424FA05F649
:100A70005E4012BF1643B2FA82F502FA05F4C5F1E0
:100A800020051EBF22FA05FC44EA0C04203556EA74
:100A9000044C4FEA144418BF641C4FF000084FF098
:100AA0000009904271EB030C39D3002919BFB1FA48
:100AB00081F701FA07F6B0FA80F700FA07F6C7F1F6
:100AC00020071EBF20FA07FC46EA0C062037B6FBBB
:100AD000F4FCA7EB0507103F07F01F0BCBF1200636
:100AE0000CFA0BFB2CFA06F644BFB3460026202F67
:100AF000A4BF5E464FF0000B5BEA060C08BF4FF048
:100B0000010B19EB0B09ABFB027C48EB0608C01B81
:100B100006FB02CC0BFB03CC71EB0C01C1E70B46CF
:100B2000024641464846BDE8F08B13B54FF0000041
:100B30004FF00001AFF30080BDE81C40704710B5D6
:100B400000F080FD006810BD10B5044600F07AFD8D
:100B5000046010BD2DE9F0470D46994692460446C3
:100B600000F124080168880604D5E06921F010012D
:100B7000216000E00120A84201DD471B00E00027C2
:100B8000A1697A1902EB0900081AA0612078C00651
:100B900002D42046FFF7E2FB002608E0D4E9012159
:100BA0001AF806009047206A401C761C20624E45C9
:100BB000F4DB2078C0060AD52046FFF7CFFB06E01D
:100BC000D4E9012130209047206A401C2062381E61
:100BD000A7F10107F4DC07E0D4E9012118F80500CA
:100BE0009047206A401C2062281EA5F10105F3DC15
:100BF0002046FFF7C9FB2078000602D50220BDE899
:100C0000F0870120FBE770472DE9FF4F0C461E4699
:100C10004FF0FF378BB0D2E90001DDF860800A9019
:100C20008A46C1F30A5505B93D46002108464FF0F2
:100C30000000BAF1000F00F4400005DA00EB80007C
:100C40004FF4400101EA50004FEA9059B9F1010F09
:100C500000DDB9460A9850EA4A000ED044F610501A
:100C6000A5F2FF3545432F14B8F1000F1ED0754291
:100C7000291E1EDDC9F100021CE0B8F1010F4FF082
:100C8000000001D0302103E0F24305E02154401C74
:100C9000B042FBDB30460022002121540B99C1F801
:100CA0000880C1E900200FB0BDE8F08FBD1B6D1CAE
:100CB000DEE74A4600DA694206A800F00FFF06ABFD
:100CC00093E8070003AB83E8070050460A9901F058
:100CD00028FA8DE80700A0F500501F38009003980F
:100CE000002D09DD42F21F014A46084403A9039082
:100CF000684601F0B2FC08E0A0F500504A461F38F3
:100D000003A90390684601F0D0FC8DE807000004B9
:100D1000000C03D04FF0FF30410800E01046B8F15E
:100D2000000F03D00022009215461EE0751E05D468
:100D300000F08CFC303262556D1EF9D5B3460122AD
:100D4000084302D000227F1C04E02078302801D123
:100D500000227F1E002A099786D01DE0112D07DA98
:100D600000F074FC303262556D1C50EA0102F5D17E
:100D7000084302D00098C8B10EE00021681E05E0CB
:100D8000235C625C63542254401E491C8142F7DBA1
:100D9000AB46A81B401E0990002004F80B000B98DE
:100DA000099AC0F80880C0E9002B7CE711264FF0B3
:100DB000000859E72DE9F04F88460446D21D22F07D
:100DC000070191B0D1E90001CDE90A0104F0B2FABE
:100DD00002460B98C00F01D02D2007E02068810744
:100DE00001D52B2002E0202101EAC000032A09904E
:100DF00001D0072A05DB03464146204600F074FC7B
:100E00000BE12078800601D5E06900E00620B8F10A
:100E1000650F814606D0B8F1660F18D0B8F1670F9C
:100E200070D131E00020B9F1110F009001DB1123E6
:100E300001E009F101030AAA01A90CA8FFF7E4FEE9
:100E4000DDE90C70002609F10105834647E0012029
:100E50004B4600904FF000470AAA01A90CA8FFF7E3
:100E6000D3FEDDE90DB00C995D46002610B909F1FD
:100E700001000D18B9EB050003D4C0F1FF3609F1EC
:100E80000105A5EB09002BE0B9F1010F01DA4FF0E4
:100E900001090020B9F1110F0090484601DD11232E
:100EA00000E003460AAA01A90CA8FFF7ADFEDDE9A0
:100EB0000C704D4600268346207800070AD4AB45C7
:100EC00000DA5D4601A8012D04DD411911F8011C6D
:100ED000302907D04F4502DA17F1040F04DA012058
:100EE00082460FE06D1EEEE7002F02DCED1B3E4454
:100EF00003E0781CA84200DD7D1CB81B00F1010A4C
:100F00004FF000472078000703D4AA4501DB4FF0DB
:100F1000FF3A0021B7F1004F0DF143088DF843105F
:100F200024D002202B23002F01DA7F422D230A2117
:100F3000021EA0F1010000DC5FB197FBF1FC97FB02
:100F4000F1F201FB1C7C17460CF1300C08F801CDC6
:100F5000EEE7A8F1010003702188090501D54521BC
:100F600000E06521A0F1010800F8011C09980FA913
:100F7000A1EB0807FF1D00B10120411901EBEA7048
:100F8000A1693844081A401EA0612078C00602D426
:100F90002046FFF7E3F9099828B1D4E901219047E9
:100FA000206A401C20622078C00622D52046FFF728
:100FB000D5F91EE0002E04DBB34502DD01A8805DFB
:100FC00000E03020D4E901219047206A401C2062D3
:100FD000761CAAF101005FEA000A0AD100F02EFB9C
:100FE000C0680168405CD4E901219047206A401C38
:100FF0002062281EA5F10105DCDC07E0D4E901210F
:1010000018F8010B9047206A401C2062381EA7F197
:101010000107F3DC2046FFF7B7F9032011B043E6E0
:1010200001694A1C02610878704700B58FB0CDE9AC
:1010300001310021059105497944CDE9031011469C
:101040006846FFF717FA0FB000BD0000E5FFFFFF8D
:101050000A6802F8010B0A60704710B5436913B1C2
:10106000AFF3008001E0FFF7A0F9012010BD127876
:1010700000F124010A7000224A700122EDE7116894
:101080004FF0FF32E9E70000074B70B50D467B4497
:10109000FFF7CBFF0446284600F08EFD10B14FF05D
:1010A000FF3070BD204670BD575500003A2800D271
:1010B000303820F02002412A01D3A2F137008842C3
:1010C00001D34FF0FF3070472DE9FF4F064689B03E
:1010D0000878FF2806D0491C2D2805D000244FF0A1
:1010E000000908E000200CE00124F8E709EB89037F
:1010F000491C00EB43090878FF28F7D114B1C9F166
:1011000000008146107800252C46AA4629462D2845
:1011100001D02B2804D1521C2D2813D00020824648
:101120008B461078FF280FD04FF0000C0A21521C7C
:10113000A5FB017804FB018105FB0C11C5194BEBE4
:101140000104EEE70120EAE7002108464FF0000025
:10115000BAF1000F02D000EB80004008C0F38158C4
:10116000B8F1010F01DD4FF0FF380C9809EB0007D3
:1011700055EA040009D04FF0020917F5FA7F0BDA9F
:101180004FEACA70C6E900B012E04FEACA70C6E979
:1011900000B00DB0BDE8F08FB7F5FA7F0DDDF04877
:1011A0007844D0E90010C6E9001040EACA707060C7
:1011B00000F048FAC0F80090EBE7391E02DAC8F1F7
:1011C000000200E0424600DA794206A800F086FC00
:1011D00006AB93E8070003AB83E8070044F23E0048
:1011E0005BEA04010090584604D144F21E012C46EB
:1011F0005D460091210C0904014306D100992404A5
:1012000044EA15442D041039009104F07F41014354
:1012100006D10099240244EA15642D020839009190
:1012200004F07041014306D10099240144EA157489
:101230002D01091F009104F04041014306D100999E
:10124000A40044EA9574AD00891E009104F00041A9
:10125000084304D100986D196441401E0090424635
:101260006846002FCDE9014503A902DD01F031FAFE
:1012700001E001F006FABAF1000F04460D4601D074
:1012800084F0004440F2FF7724F00040284303D06C
:10129000C4F30A50B84212D100F0D4F9C0F800905B
:1012A000C4F30A50B8420AD1AE487844D0E90010DD
:1012B000C6E9001004F000410843706069E7C6E920
:1012C000005466E72DE9FF4F1F464FF0000A4FF02C
:1012D000FF38454691B0D7E90146CDF83CA000F073
:1012E000ADF9C0680168405C1090B96912986D1C36
:1012F0008847396A814688470028F6D1B9F1FF3F0F
:101300000AD0002E24F4D06411DDB9F12B0F08D0DF
:10131000B9F12D0F0BD102E0404615B03AE744F485
:101320008064B96912986D1C8847761E81466005F5
:1013300004A901D52D2000E02B20002E01F1010B86
:101340000DF130088DF810003FDDB9F1690F08D0BC
:10135000B9F1490F05D0B9F16E0F02D0B9F14E0FB6
:101360001CD13B4601A8009580E85002DDE912122D
:101370006FF002000BF08BFAC11CCED10EE0B96900
:1013800012986D1C884781461398761E44F40074A9
:1013900005600F98401C002E0F9016DDB9F1300F3C
:1013A000EDD0B9F1780F02D0B9F1580F0DD10F98E7
:1013B00001280AD13B46CDE90054DDE91212001F95
:1013C00002960BF062FAC11CA7D1109989453ED153
:1013D00044F0800406E01399681CAAF1010A44F461
:1013E00000740860B9696D1C1298761E8847302811
:1013F0008146F0D02BE01099894505D1200603D411
:10140000761E44F0800418E0484604F06EF808B3F5
:10141000761E0DF123018B4544F4007408D2A9F126
:1014200030000BF8010B200607D5AAF1010003E0FC
:10143000200602D40AF101008246A00502D51399C4
:10144000681C0860B96912986D1C88478146002E97
:10145000D1DC53E0002E51DDB9F1650F02D0B9F1B6
:10146000450F4BD1A00549D5B9696D1C1298761E60
:1014700024F440748847002E81460CDD2B2804D0CC
:10148000B9F12D0F07D144F48074B96912986D1C1D
:101490008847761E8146E00501D52D2100E02B21ED
:1014A00008F8011BCDF8008021E0761E0DF139010E
:1014B000884544F400740CD2A9F1300010F0FF000C
:1014C00088F8000002D10099884509D908F101087F
:1014D00006E0E00501D5244801E042F20F708246A3
:1014E000B96912986D1C8847814613980560002ED3
:1014F00004DD484603F0F9FF0028D6D1F9691298B7
:101500008847FF2053468BF8000088F80000002031
:101510000A900B9004AA0CA90AA8FFF7D5FDA00514
:1015200002D46FF00100F8E614F0240F0AD0E007AF
:1015300014D13868DDE90A12031D3B600068C0E978
:1015400000120BE00AA9684603F078FFE00705D116
:101550003868009A011D3960006802602846DCE6A0
:1015600060E0000056DF0000F1D8FFFF0268114480
:101570001378016018467047D1600549794451617C
:1015800004497944116200211161114600F0ECB860
:10159000EDFFFFFF51010000426842B1016811F800
:1015A000013B23B1521EC0E90012184670470121C9
:1015B000C160881E704742685AB1C368016843B968
:1015C00083688B4205D0491E521CC0E900120020DE
:1015D00070474FF0FF30704710B5203AC0F00B80D5
:1015E000B1E81850203AA0E81850B1E81850A0E827
:1015F0001850BFF4F5AF5FEA027C24BFB1E8185081
:10160000A0E8185044BF18C918C0BDE810405FEAF0
:10161000827C24BF51F8043B40F8043B08BF70476C
:10162000D20728BF31F8023B48BF11F8012B28BF71
:1016300020F8023B48BF00F8012B70470048704774
:101640001C34002000487047FC33002030B5B0F156
:101650000A024FEA900E71F100034EEA817EB0EB70
:101660000E0061EB91014FEA101E4EEA017E10EB75
:101670000E0041EB11114FEA102E4EEA016E10EBF5
:101680000E0041EB11214FEA104E4EEA014E10EBD5
:101690000E0041EB1141401841F100014FEAD0002A
:1016A00040EA41704FEAD10110EB80054FEA810416
:1016B00044EA907444EB01046D1944EB0404521B9A
:1016C000A3414FF0000348BF0A3200D530BD401C93
:1016D00041F1000130BD10B5044600F09BFA0068EE
:1016E000005D00F0010010BD2DE9F0411F460446E9
:1016F00003260168072A01F4006004DB08B116A57F
:1017000005E016A503E008B115A500E015A521F038
:1017100010002060A069C01EA0610FB1401EA06132
:101720002046FEF71BFE4FB1D4E901213846904711
:10173000206A401C2062C01C206206E0206AFAE792
:10174000D4E9012115F8010B9047761EF8D2204606
:10175000FEF71AFEBDE8F0814E414E006E616E004C
:10176000494E4600696E66002DE9F34F4FF0000ABE
:101770000C4656468DB001200C9001F10C000B90E8
:1017800062690B980121904705002DD0252D2CD0A2
:10179000216A8847C0B162690B9801219047216A8C
:1017A00088470028F7D16269411E0B98904700E0F6
:1017B000761CA1690D988847216A88470028F7D1CF
:1017C000E1690D988847DBE7A1690D988847A84231
:1017D000074601D1761CD3E7E1690D9888477F1C45
:1017E00002D1BAF1000F6FD06BE162690B9800274C
:1017F0003D46394690472A2804D162690B98012159
:1018000090470125DFF8D08262690B98012190474B
:10181000A0F130010A290AD24745E5DC07EB870130
:1018200000EB4107303FDFD445F01005ECE7E90657
:1018300001D46FF000476C280AD04C2814D06828D7
:1018400015D06A280DD074281CD07A281AD01DE033
:1018500062690B98012190476C2802D045F004057D
:1018600014E045F002050DE045F020050AE062694C
:101870000B9801219047682802D045F0080505E043
:1018800045F4006562690B9801219047C4E901574E
:1018900065283DD019DC58287AD00CDC452837D093
:1018A00004DC252826D041289ED131E046282FD0BF
:1018B000472899D12CE05B2877D0612828D063286D
:1018C0007CD0642823D15AE0F6E06F2848D008DCA9
:1018D00066281DD067281BD0692821D06E2816D114
:1018E00027E0702845D0732868D0752847D078281D
:1018F0000DD14DE0A1690D988847252805463FF494
:1019000069AFE1690D9888476D1C3FF46AAFD8E074
:101910000D9923466A466FF001000AF0B4FFC5E056
:1019200045F0400023464FF000026060A80736D41F
:101930003EE0E8077FF447AF2068011D21600068A2
:10194000290501D506701BE7290701D5068017E791
:10195000A90703D5F117C0E9006111E706600FE799
:1019600045F0400023464FF008026060A80716D4F7
:101970001EE040F60E0125EA0100606016E045F029
:10198000400023464FF00A026060A80707D40FE02A
:1019900045F040006060A80708D5234610220D9945
:1019A0006FF00100FEF70CFE80E007E010222346F6
:1019B0000D996FF00100FEF7AEFE77E04FF00009E1
:1019C00063284F46C8464B46CB4602D05B2806D01C
:1019D00038E0E80601D40120A060012732E0626906
:1019E000D4F80CB00B98012190475E2807D14FF036
:1019F000010949466269D4F80CB00B9890472169F7
:101A000039B900210A4603AB43F82120491C0829B3
:101A1000FADBD8B3216949B308F1010862690B9870
:101A2000012190475D28F4D1B9F1000F09D00020C1
:101A300003A951F82020D24341F82020401C082857
:101A4000F7DB03AB2069002820794FEA40701ED0F5
:101A50005B462246CDF80080CDE901970D9900281C
:101A60006FF0010020DAAFF300801FE0C11703AA76
:101A700000EBD1614B1121F01F0102EB8302411AEF
:101A800013680120884003431360C7E719E00D99EC
:101A9000224600286FF00100009702DAAFF30080C1
:101AA00004E0AFF3008001E0AFF3008000280ADA21
:101AB000401C06D10C9820B14FF0FF300FB0BDE8AC
:101AC000F08F5046FAE7E90701D10AF1010A06440E
:101AD00000200C9054E60000CCCCCC0C2DE9F04753
:101AE000814616468AB0334878440DC88DE80D000B
:101AF00030487844801C03AC0DC884E80D0041F6E2
:101B00009B300844372190FBF1F290FBF1F5A5F1F1
:101B1000800501FB12041B3C02D56442012000E059
:101B20000020DFF890A080460027FA44AAF1BE0A00
:101B30000DE0E00709D03246684607EB47010AEBA3
:101B4000810100F0B2FD8DE8070064107F1C002CBD
:101B5000EFD1184F7F44AC3F18E0E80714D007EBF3
:101B600004100DF1180A90E80E008AE80E00C06813
:101B7000F04201D198190890324606A903A800F056
:101B800094FD03AB83E807006D10641C002DE4D1C5
:101B900032466946B8F1000F03A802D000F05DFD9F
:101BA00001E000F082FDC9E90001C9F808200AB08F
:101BB000BDE8F08790D60000007B00F08000704701
:101BC00000487047FC3300207546FFF7F9FFAE462A
:101BD00005006946534620F00700854618B020B539
:101BE000FEF764FBBDE820404FF000064FF0000711
:101BF0004FF000084FF0000B21F00701AC46ACE8B5
:101C0000C009ACE8C009ACE8C009ACE8C0098D4621
:101C10007047000010B5FFF711FD001D10BD00BF9B
:101C2000E19800002DE9FF4F1F464FF03C0987B0B7
:101C30004FF00042DDE9141001F10108DDF858A071
:101C400002EA405003900020049083460546044673
:101C50000590B969461E08988847AAF1010A0290C2
:101C6000BAF1000F37DD02982E2815D01021FFF7AA
:101C70001DFA00282ADB4FF0010B0499014316D00E
:101C8000B9F1000F0BDB4A46C11700F037FA0543E4
:101C90000C43A9F1040905E00120059007E008B113
:101CA00045F0010501200490059800B9361DB96979
:101CB000089808F101088847BBF1000FAAF1010A52
:101CC0000290CDD00999C1F80080C9E70298702828
:101CD00008D0502806D0F96908988847BBF1000F52
:101CE00014D04FE0002002900120BBF1000F0490BF
:101CF00009D0B969089808F101088847AAF10109D3
:101D0000B9F1000F07DCF969089888476FF0010006
:101D10000BB0BDE8F08F2B2804D02D280CD14FF04C
:101D2000FF300490B969089808F101088847A9F1C3
:101D30000109B9F1000FE6DD411CE4D00A21FFF7EB
:101D4000B5F90028DFDB029908F1010801EB8101F8
:101D500000EB41000290B969089888470A21FFF713
:101D6000A5F9099AA9F10109B9F1000FC2F800809B
:101D700001DD0028E7DAF969089888470499029894
:101D800000FB016655EA040004D004F0404109005C
:101D900002D006E0039898E0A40044EA9574AD00F0
:101DA000B61E04F00041080002D16D196441761E90
:101DB000159810F0240F03D04FF00B095C4803E096
:101DC0004FF028096FF07D008246564507DAAAEBEE
:101DD00006018944B9F1410F01DD4FF041090120AD
:101DE0000021A9F1010200F089F9024628400B46C2
:101DF0002140084301D0012100E00021501E029142
:101E000043F1FF3128402140084301D0012000E088
:101E100000200299834651EA0B014FD00021084669
:101E20004FF00000039900F4400039B100EB80004E
:101E30004FF4400100EBD07001EA600080150128EA
:101E400002DD4FF0FF3000E013D0401C36D0029886
:101E500060B3BBF1000F0CD14A460120002100F015
:101E60004DF928402140084301D0012000E0002026
:101E7000E0B101204A46002100F040F90346401934
:101E80000A4661412D1A8C4111D3B9F1400F09DD89
:101E9000159810F0240F02D0AAF1340603E0AAF13D
:101EA000170600E0761C00254FF0004406E05B1E9C
:101EB00042F1FF3220EA030521EA0204CAF10100DF
:101EC000B04206DA1B4903980843019000200090B5
:101ED0000EE0039AC4F3D321E80A0A43164940EA04
:101EE00044500A433146CDE90002684603F0F2FA55
:101EF000159810F0240F0BD01598C00715D138682D
:101F0000DDE90012031D3B600068C0E900120CE02F
:101F100002A8694603F092FA1598C00705D13868FF
:101F2000029A011D3960006802604046F0E6000038
:101F300002FCFFFF0000F07F0000F03F2DE9FF4FA3
:101F400092461D4685B04FF00041DDE9124BDDE9B8
:101F500014727F1E01EA4B50414940F0FF4940EAAC
:101F60000108002122F020004928049102D04E28C7
:101F700028D04CE03BA0012607C88DE80700A969DE
:101F80000698641C88477F1E014606D41DF806008B
:101F900018B121F0200181420BD0E96906988847E9
:101FA000032E34D0082E32D06FF0010009B0BDE806
:101FB000F08F761C032E01D0082EE0D1601CCAF8E9
:101FC0000000DCE7A9690698641C88477F1E2AD4B4
:101FD00020F02000412826D1A9690698641C884772
:101FE0007F1E20D420F020004E281CD1A96906981D
:101FF000641C88477F1E48F4002849F48009CAF809
:10200000004001D4282806D0E969069888475FEA8D
:10201000CB7012D022E0A9690698641C88477F1E05
:1020200001D4002803DAE96906988847BCE7292823
:10203000F1D1641CCAF80040E9E71BF0240F07D077
:1020400028680499031D2B600068C0E9001805E0AA
:102050002868021D2A600068C0F800902046A5E7A5
:102060000000F07F494E46494E4954590000000097
:102070000446AFF300802046FEF7B8F84FF0013C6D
:1020800050F8042B51F8043B9A4221D1A2EB0C03E7
:10209000934313EACC1317D150F8042B51F8043BA7
:1020A0009A4215D1A2EB0C03934313EACC130BD144
:1020B00050F8042B51F8043B9A4209D1A2EB0C03CF
:1020C000934313EACC13DBD04FF00000704700BFFE
:1020D000D01A01BAB1FA81F101F0180122FA01F027
:1020E000CB40C1F12001DBB2C0B2C01A2CFA01F31F
:1020F000D11A914311EAC311E6D17047B2F120031E
:102100000AD5C2F1200301FA02F120FA03F300FA22
:1021100002F041EA0301704700FA03F14FF00000BA
:1021200070475FEA400C08BF91F0000F4FEA8C2324
:102130004FEAC12243EA51514FEA1C5018BF00F543
:10214000F0404FEA300018BF41F000415FEA6C5C9C
:1021500000F02980BCF1FF3F08BF40F0804070478D
:10216000130C06BF12044FF0100C4FF0000C130EAE
:1021700004BF12020CF1080C130F04BF12010CF182
:10218000040C930F04BF92000CF1020CD30F04BF98
:1021900052000CF1010C11464FF00002A0F11F009B
:1021A000A0EB0C00704711F0004F08BF704731F0F2
:1021B00000413FF4D5AF0B0C06BF09044FF0100CE3
:1021C0004FF0000C0B0E04BF09020CF1080C0B0FB2
:1021D00004BF09010CF1040C8B0F04BF89000CF142
:1021E000020CCB0F04BF49000CF1010CCCF1200311
:1021F000A0EB0C0022FA03F302FA0CF241EA03010D
:1022000000F10100704720F07F4C80EA030023F0CA
:102210007F47ACEB070303F57C5300F0004003F16C
:10222000FF032DE980494FEA154B09B44FEA1443E7
:1022300025EA0B4E24EA03480FF2042606EB132787
:1022400049083E785FEA320203FB0667C7F50007DC
:1022500007FB06F64FEA54374FEAD64606F1020668
:1022600007FB066CCCF1005C4FEA1C472CEA074CDC
:1022700007FB06F40CFB06F504EB15464FEA961631
:1022800034BF00204FF000404FEAD13706FB07FC77
:102290004FEA1C4C0CFB0BF7D21B03FB0CF761EB5A
:1022A00007010CFB0EF7B0EB074072EB17420CFB7B
:1022B00008F734BFA2EB0742B2EB074261EB1741CC
:1022C0004FEA0C444FEA910706FB07FC4FEA1C4C0F
:1022D0000CFB0BF7B0EBC74072EB573203FB0CF76C
:1022E00034BFA2EBC742B2EBC74261EB57310CFBE4
:1022F0000EF7B0EBC70072EB57720CFB08F734BF58
:10230000A2EBC702B2EBC70261EB5771039F4FEA22
:10231000816141EA921104EBCC044FEAD1374FEAD4
:10232000826206FB07FC42EA90124FEA80604FEAA5
:102330001C4C0CFB0BF7D21B03FB0CF761EB0701EA
:102340000CFB0EF7B0EB074072EB17420CFB08F7E3
:1023500034BFA2EB0742B2EB074261EB17414FEAF1
:102360008C554FEA910704EB9C2406FB07FC4FEACF
:102370001C4C0CFB0BF7B0EBC74072EB573203FB66
:102380000CF734BFA2EBC742B2EBC74261EB573147
:102390000CFB0EF7B0EBC70072EB57720CFB08F7A3
:1023A00034BFA2EBC702B2EBC70261EB577115EB6A
:1023B0004C254FEA816141EA92114FEA82624FEA6D
:1023C000D13742EA901206FB07FC44F100044FEAC1
:1023D00080604FEA1C4C0CFB0BF7D21B03FB0CF785
:1023E00061EB07010CFB0EF7B0EB074072EB1742F5
:1023F0000CFB08F734BFA2EB0742B2EB074261EBDC
:10240000174115EB1C154FEA813141EA92414FEA21
:10241000823242EA90424FEA80304FEA0C7644F131
:10242000000448EA03434EEA0B484FF0000EB2EBBB
:10243000080C71EB030724BF624639464EEB0E0EC3
:102440004FF0000B0018524149414BEB0B0BB2EB24
:10245000080C71EB03077BF1000B24BF6246394681
:102460004EEB0E0E4FF0000B0018524149414BEB62
:102470000B0BB2EB080C71EB03077BF1000B24BFD5
:10248000624639464EEB0E0E51EA020718BF46F07F
:10249000010616EB0E7655F1000254F1000103D54A
:1024A000BDE88901BDE80088BDE88901BDE80048B4
:1024B000B619524141EB0101A3F10103704780803D
:1024C0007F7E7D7C7B7A797877767675747372718E
:1024D00071706F6E6E6D6C6C6B6A6A696868676646
:1024E00066656464636362616160605F5F5E5E5DD8
:1024F0005D5C5C5B5B5A5A5959585857575656554C
:1025000055555454535352525251515050504F4FAD
:102510004F4E4E4D4D4D4C4C4C4B4B4B4A4A4A49FD
:102520004949484848474747474646464545454440
:1025300044444443434343424242424141410000F8
:1025400046EA0646A3F570534FEA164646EA425657
:102550004FEAD22242EA415210B54FEAD121A3F10B
:10256000010300F017F820F0004000F1010C00F02A
:10257000004701EB00501146BCF5006F40EA070030
:1025800000D210BD02484FF0000140EA070010BD24
:102590000000F07F002B26D4770021D01CB54FEA35
:1025A000370703B44FF010004FF010014FF0000058
:1025B0000FBCBDE810400BF1010BBBF1010F08BFD0
:1025C0005FEA170722BF12F1010211F101014FF07A
:1025D000004143F1000300F0004043EA000070476F
:1025E000F9D35708DAE746EA064613F1400F4FEAF7
:1025F00016461FDD13F1200FDFBF16430A460021E8
:1026000020335B42C8D0C3F1200746EA064602FAEF
:1026100007F74FEA164646EA0706C3F1200722FAF3
:1026200003F201FA07F721FA03F14FF0000342EA3F
:102630000702B1E746EA020646EA06464FEA1646B0
:1026400046EA0106BCBF46EA0646360C4FF00003D8
:102650004FF000024FF000019EE72DE9C04893467D
:1026600030B491E8380007C831EA400C48BF34EA7A
:10267000430C03D5FFF7C7FDFFF78CFFF0BCBDE8A7
:1026800000882DE9C048934630B491E8380007C867
:1026900031EA400C48BF34EA430C03D5FFF7B3FDE1
:1026A000FFF74EFFF0BCBDE800882DE9C048934617
:1026B00030B491E8380007C810F0804F08BF13F01D
:1026C000804F03D100F019F8FFF764FFF0BCBDE8BC
:1026D00000882DE9C048934630B491E8380007C817
:1026E00010F0804F08BF13F0804F03D100F005F8C1
:1026F000FFF726FFF0BCBDE8008820F07F4780EAA6
:10270000030023F07F4C07EB0C03A3F57C5300F090
:102710000040A3F1FE0392F0000F00F0B38095F0AB
:10272000000F00F077802DE901494FEA11404FEA90
:10273000144621EA004800FB06FC24EA064708FB91
:1027400006F607FB08F800FB07F718EB06484CEB0A
:10275000164C4FEA124B18EB07484FEA15464CEB64
:10276000174022EA0B4E0BFB06FC25EA06470EFB40
:1027700006F607FB0EFE0BFB07F71EEB064E4CEBB7
:10278000164C4FF000061EEB074E4CEB174B18EBA8
:102790000B0840F1000018EB0E0B58EB000840F15D
:1027A00000008F1A4FF000013CBFC943661B14BFE5
:1027B000B5EB040C00213CBFC943F61B4FEA17449C
:1027C0004EEA8E0E27EA04454FEA1C4704FB0762D7
:1027D0002CEA074C05FB07F70CFB05F604FB0CFC89
:1027E00016EB074642EB174216EB0C4642EB1C4237
:1027F0001BEB060658EB0202414146EA9E0601D554
:10280000BDE80189B619524141EB0101A3F1010371
:10281000BDE801894FEA14454FEA114724EA05460D
:1028200021EA074C05FB07F406FB07F70CFB06F152
:1028300005FB0CFC11EB074144EB17444FEA124730
:1028400011EB0C4144EB1C4422EA074C05FB07F258
:1028500006FB07F70CFB06F605FB0CFC16EB074620
:1028600042EB174216EB0C4642EB1C456A1854F13A
:10287000000148BF7047B619524141EB0101A3F175
:102880000103704795F0000F37D04FEA11424FEA2D
:10289000144721EA024624EA074C02FB07F106FB33
:1028A00007F70CFB06F402FB0CFC14EB074441EBAE
:1028B00017414FEA154714EB0C4441EB1C4125EA44
:1028C000074C02FB07F506FB07F70CFB06F602FBBD
:1028D0000CFC16EB074645EB174516EB0C4645EB93
:1028E0001C42121951F1000148BF7047B6195241FC
:1028F00041EB0101A3F1010370474FEA14454FEA90
:10290000114724EA054621EA074C05FB07F106FBBF
:1029100007F70CFB06F24FF0000605FB0CFC12EB70
:10292000074241EB174112EB0C4251EB1C4148BFEF
:102930007047921841EB0101A3F101037047002990
:10294000816802D041F0010101E021F001018160C4
:10295000704700000D4910B5884202D1012144158D
:102960000AE00B49884202D10121041504E009491B
:1029700088420AD10121CC03204601F07BFD20468C
:10298000BDE81040002101F075BD10BD00240140DC
:1029900000280140003C01400146002089684907A9
:1029A00000D501207047C06C80B2704702460020FD
:1029B00012680A4200D00120704701460020896851
:1029C000090700D50120704710B542680E4B0C79FD
:1029D0001A400B6842EA04221343436083680B4A9F
:1029E0001340D1E9024222434C7943EA44031A439B
:1029F0008260C26A097C22F47002491EC9B242EAAE
:102A00000151C16210BD0000FFFEF0FFFDF7F1FFB4
:102A100070B5072409290AD9C568A1F10A0606EB91
:102A20004606B440A543B3401D43C56007E00569B1
:102A300001EB4106B440A543B3401D4305611F238C
:102A4000072A09D2446B521E02EB820293409C4338
:102A500091400C43446370BD0D2A09D2046BD21F10
:102A600002EB820293409C4391400C43046370BD8F
:102A7000C46A0D3A02EB820293409C4391400C439E
:102A8000C46270BD816841F008018160704700290F
:102A9000816802D041F4A00101E021F4A00181602D
:102AA0007047816841F004018160704770B586B05D
:102AB00001214FF4027001F0D1FC4FF4004001F00D
:102AC000ABFC0125ADF8145000248DF8174005A982
:102AD0001D4800F00FF91D4E3046FFF73BFF4FF445
:102AE0006020CDE902048DF8044000948DF8054083
:102AF0008DF8105069463046FFF766FF0723012224
:102B000008213046FFF784FF01213046FFF7BFFF61
:102B100001213046FFF713FF3046FFF7B3FF34467D
:102B20002046FFF74AFF0028FAD12046FFF7B9FFF9
:102B30002046FFF731FF0028FAD101212046FFF798
:102B4000A6FF06B070BD0000000C0140002401404B
:102B5000FEE770472DE9F0470446167803F00700BA
:102B6000DFF85481089D91460F46082805D2DFE81A
:102B700000F00416293C4F627588300602D598F89B
:102B80001C2006E098F81C00012801D0012200E07A
:102B90000022B9B2A0B201F071FD6D1E76D07006B0
:102BA00002D598F81C2006E098F81C00012801D0F6
:102BB000012200E00022601CB9B280B201F05EFD8B
:102BC0006D1E76D0B00602D598F81C2006E098F865
:102BD0001C00012801D0012200E00022A01CB9B293
:102BE00080B201F04BFD6D1E63D0F00602D598F85F
:102BF0001C2006E098F81C00012801D0012200E00A
:102C00000022E01CB9B280B201F038FD6D1E50D038
:102C1000300702D598F81C2006E098F81C0001281F
:102C200001D0012200E00022201DB9B280B201F0E3
:102C300025FD6D1E3DD0700702D598F81C2006E0DA
:102C400098F81C00012801D0012200E00022601D3C
:102C5000B9B280B201F012FD6D1E2AD0B00702D5C4
:102C600098F81C2006E098F81C00012801D00122E9
:102C700000E00022A01DB9B280B201F0FFFC6D1E81
:102C800017D0F00703D098F81C2007E011E098F85F
:102C90001C00012801D0012200E00022E01DB9B291
:102CA00080B201F0EBFC6D1E03D019F8016F0834FF
:102CB00063E7BDE8F0870000280200200A2805D05D
:102CC0000D2805D0034909690968084700F024B9AF
:102CD00070470000280200207CB514460D4682682B
:102CE0008188CDE90012438802882146284600F0F9
:102CF000C5FD7CBDF0B5CA78002502F00F03D206F1
:102D000001D58A7813430A784FF00F0E12F0FF0FA7
:102D10004FF001021CD004680F8802FA05F6374014
:102D2000B74211D14FEA850C0EFA0CF724EA0707D7
:102D300003FA0CF43C43CF78282F02D0482F02D05E
:102D400002E0466100E006616D1C082DE4D30460DA
:102D50000C88FF2C1ED944685FF0000606F10807B6
:102D600002FA07F50F882F40AF420FD14FEA860CC9
:102D70000EFA0CF7BC4303FA0CF73C43CF78282F2C
:102D800000D14561CF78482F00D10561761C082E0F
:102D9000E4D34460F0BD0000F0B5144C002801DA23
:102DA000E36900E06368420D120185B2C0F3015788
:102DB0009540C0F30346032F05D0C2020AD5032273
:102DC000B240934307E023F07062636823F07063BE
:102DD000636002E0AB4343F0706201B12A43002814
:102DE00001DAE261F0BD6260F0BD00000000014068
:102DF0000246002092680A4200D0012070474161DB
:102E00007047016170470AB10161704741617047C5
:102E10007CB51E4C054629462069806900F038F8CB
:102E2000002831D041680088281A01EBC005696884
:102E3000A878CDE9000120692A78B4F91610037D3D
:102E4000B4F9140000F01AFD2169487D097D88421B
:102E500012D9227F012A01D0012200E00022009233
:102E6000A28A2B78E68A1A44304483B2701881B261
:102E700092B2A08A01F052FB2269B4F91400697879
:102E8000927D01FB0200A0827CBD00002802002090
:102E900006E002888A4202D842888A4202D28068CA
:102EA0000028F6D17047000070B5094D0446214650
:102EB00028698069FFF7ECFF002807D04168008887
:102EC000201A11F830002969897D484370BD00003F
:102ED0002802002001200880704710B58069FFF7A4
:102EE000D7FF002800D0012010BD10B500210846F2
:102EF00000F0EEF8402380220021BDE81040084693
:102F0000AFF3008038B500249BB292B289B280B290
:102F1000009401F003FB38BD00B500F0B9F8024998
:102F2000CA8A1044C88200BD280200202DE9FC474F
:102F3000060054D000F0ACF8374C8146B4F9148048
:102F400000F0AEF8E18A0746C81BE0823DE000BF12
:102F500047F6FF71304600F02EF9824601463046B2
:102F600000F010F90546A07E00F0030001283CD0D7
:102F7000022836D00020A18A6A46081AA082ADF83D
:102F80000000691E0844ADF80400E08AADF80200B4
:102F9000A9F101010844ADF806005146304600F0A1
:102FA000D7F8BDF80200E0825146304600F0C8F87C
:102FB000064430780A281AD00D2818D0BDF8000031
:102FC0002844A082307818B1761C30780028BFD110
:102FD000E08A3844E082608B20F003006083BDE823
:102FE000FC8705EBD5704010C5E72846C3E7A07EF7
:102FF00000F0030001280BD0022809D00020A08295
:1030000030780A28DED1E18A01EB0900E082D9E7B5
:10301000A4F81480F4E7000028020020024B9982F3
:10302000DA82FFF783BF00002802002070B5064651
:10303000094813460D46B0F91A0040F0020000F0AE
:1030400077F804461A4629463046FFF7E7FF204640
:10305000BDE8704000F06CB828020020FFF73CBECD
:103060002DE9F0411D46164607460C4605E032465E
:103070002146384600F046FC641CAC42F7DBBDE854
:10308000F0810000014909694968084728020020C9
:1030900001480069407D7047280200208020704769
:1030A00009490020897E01F00C020749042A0969B8
:1030B00006D0082A01D00C2A01D1087D40087047AB
:1030C000087D401E70470000280200204020704705
:1030D00070B50D4602F022F90446284602F024F9A4
:1030E000204370BD0B4910B52E2008700A480021FE
:1030F0007F220180418082803F22C2808182C18202
:103100000649016101214172017701F02FFB002086
:1031100010BD00003001002028020020A8E30008B4
:10312000024A116900B11061084670472802002068
:10313000024AB2F91A10508308467047280200204C
:10314000002000E0401C491EFCD2704701F0C2BACA
:1031500070B50B4B126804469A821214DA820D463F
:103160000BE000BF14F8010B7F2804D914F8011BF1
:103170006D1E41EA0020FFF7A1FD6D1EF2D570BD66
:103180002802002070B50D4604004FF000060CD157
:103190000FE0641C6D1E7F2804D914F8011B6D1EFE
:1031A00041EA0020FFF76EFF0644207808B1002DA9
:1031B000EFDA304670BD002208E0401C7F2B02D9B8
:1031C000401C521C01E00A2B04D0521C03780BB1A6
:1031D0008A42F2DB1046704710B50B4C01460723BC
:1031E00001222046FFF714FC01212046FFF74FFC87
:1031F00002212046FFF7DAFB0028F9D02046BDE87F
:103200001040FFF7D0BB0000002401402DE9F04141
:1032100000250E4607462C4608E03846FFF7DCFF3F
:103220000544052002F012FD641CE4B2B442F4D35C
:10323000B5FBF6F080B2BDE8F081000070B5084C37
:103240000646208801040AD50649C0F30D00002572
:103250000D5405A0FDF762F8002E00D0258070BD4A
:103260009E010020BC06002025730000064A01468E
:1032700000201288130406D5044BC2F30D029854A3
:103280001846FDF7EEBA70479E010020BC060020EC
:1032900010B508210548FFF7B4FD6422044905A0D4
:1032A00000F0ACF80028F8D010BD0000000C014080
:1032B000E833000841540D0A00000000F8B5012170
:1032C000092001F0CBF801211648FFF765FD1648EB
:1032D000416821F0200141601448416821F0E0611B
:1032E00041F0007141600820ADF800001024104E3C
:1032F0008DF8034003258DF8025069463046FFF7EC
:10330000F9FCADF8004048208DF803008DF802501C
:1033100069463046FFF7EEFC08213046FFF76FFDA7
:10332000F8BD000000023000002004E00000014071
:10333000000C014010B5FFF7ABFF642212A113A0EF
:1033400000F05CF80028F8D064220FA112A000F071
:1033500055F80028F8D064220BA112A000F04EF816
:103360000028F8D0642208A112A000F047F8002835
:10337000F8D0642204A113A000F040F80028F8D08F
:10338000BDE8104000F024B84F4B000041542B44DE
:103390004953430D0A00000041542B4F52474C0D36
:1033A0000A00000041542B4E414D453D4843303505
:1033B0000D0A000041542B434D4F44453D310D0A49
:1033C0000000000041542B524D4141440D0A0000C1
:1033D00010B5642204A105A000F010F8BDE810406B
:1033E00008210548FFF70BBD4F4B000041542B52FD
:1033F000455345540D0A0000000C01402DE9F041F1
:10340000134D0F4680460026014614462E8011A01B
:10341000FCF784FF404601F08BFE77B18CB90CE0DD
:103420000A2002F013FC288800040AD53846FFF76A
:103430001DFF28B10120FFF701FF0120BDE8F08149
:103440002E80641E2404240CEAD10020F6E700003C
:103450009E0100202573000000B585B01421684648
:10346000FDF7CBFA16A218A16846FCF763FFFFF739
:103470000FFF642218A119A0FFF7C0FF0028F8D0A1
:10348000642215A16846FFF7B9FF0028F8D064222E
:1034900011A115A0FFF7B2FF0028F8D064220EA1F9
:1034A00015A0FFF7ABFF0028F8D064220AA112A0F4
:1034B000FFF7A4FF0028F8D0FFF78AFF05B000BD92
:1034C000313533380000000041542B4E414D453D0D
:1034D00025730D0A000000004F4B000041542B449F
:1034E0004953430D0A00000041542B505357443DAB
:1034F000313231320D0A000041542B524F4C453DC0
:10350000310D0A0000B585B014216846FDF775FA43
:1035100016A218A16846FCF70DFFFFF7B9FE64225A
:1035200018A119A0FFF76AFF0028F8D0642215A19E
:103530006846FFF763FF0028F8D0642211A115A0A8
:10354000FFF75CFF0028F8D064220EA115A0FFF75A
:1035500055FF0028F8D064220AA112A0FFF74EFF01
:103560000028F8D0FFF734FF05B000BD31353338FF
:103570000000000041542B4E414D453D25730D0A7E
:10358000000000004F4B000041542B444953430DB1
:103590000A00000041542B505357443D3132313220
:1035A0000D0A000041542B524F4C453D300D0A008E
:1035B000FEE7000070B505460824134E18E000BF72
:1035C000FFF721FC00F09EF8280601D5012200E05B
:1035D000002280213046FFF716FC6806050E00F039
:1035E00091F8012240213046FFF70DFC00F08AF8E7
:1035F000641EE4B24FF000024FF040013046DFD2CB
:10360000BDE87040FFF7FFBB000C014010B5154C42
:10361000012280212046FFF7F6FB012240212046AF
:10362000FFF7F1FB00F06EF880212046FFF7E0FB8A
:1036300000280CD0002280212046FFF7E4FB00F098
:1036400061F880212046FFF7D3FB08B1002010BDB0
:10365000002280212046FFF7D6FB00F053F801201E
:1036600010BD0000000C014010B50F4C002240219D
:103670002046FFF7C8FB00F045F8002280212046D5
:10368000FFF7C1FB00F03EF8012240212046FFF782
:10369000BAFB00F037F8012280212046FFF7B3FB88
:1036A000BDE8104000F02EB8000C014010B5144CDD
:1036B000002240212046FFF7A6FB00F023F801225C
:1036C00080212046FFF79FFB00F01CF801224021DB
:1036D0002046FFF798FB00F015F880212046FFF701
:1036E00087FB00284FF000024FF04001204603D036
:1036F000FFF789FB002010BDFFF785FB012010BDFF
:10370000000C014008B507200090401E0090FCD13D
:1037100008BD000008B50121042000F09FFE48F21A
:103720003010ADF8000048208DF8030001208DF81E
:10373000020069460148FFF7DDFA08BD00080140B4
:1037400070B5354C0025D4F8100160B1D4F81401DF
:1037500038B3D4F82001002841D0D4F83C01002827
:103760004BD0002070BD322010E06D1C0A2D03DC10
:103770000BE0142002F06AFAD4F810010028F8D007
:1037800026A0FCF7CBFD052070BD142002F05EFAE8
:10379000D4F810010028E8D024A0FCF7BFFD0120D8
:1037A00070BD322010E06D1C0A2D03DC0BE01420EC
:1037B00002F04CFAD4F814010028F8D01FA0FCF74E
:1037C000ADFD062070BD142002F040FAD4F81401BB
:1037D0000028E8D01DA0FCF7A1FD022070BD32201A
:1037E00000E0142002F032FAD4F820010028F8D0CA
:1037F0001AA0FCF793FD032070BD322000E01420D6
:1038000002F024FAD4F83C010028F8D017A0FCF705
:1038100085FD042070BD0000000021426B65792009
:103820003520707265737365640D0A006B657920CD
:103830003120707265737365640D0A006B657920C1
:103840003620707265737365640D0A006B657920AC
:103850003220707265737365640D0A006B657920A0
:103860003320707265737365640D0A006B6579208F
:103870003420707265737365640D0A002DE9FE4390
:10388000DFF87C90DDE90A65B9F90280871801EB61
:10389000030C7F1EA8EB0104ACF1010C002C05DD2C
:1038A0001B1B002B2ADD04FB06554146B9F9068097
:1038B0004C46ACEB080CBCF1000F03DDA3EB0C0392
:1038C000002B1BDDB4F904C0A7EB0C07002F00DDB3
:1038D000D21BB9F900400027844208DD241A24F0E5
:1038E00007073844121B05EBE40504F00707002A1C
:1038F00004DDCDE90065029700F026F8BDE8FE83FF
:103900002802002038B50F4BB3F902408C4217DC77
:10391000B3F906408C4213DBB3F90040844200DD6A
:103920002046B3F90440944200DA2246824207DB83
:103930001B7F00938BB292B289B280B200F019FE65
:1039400038BD0000280200202DE9F84F1E46DDE9B1
:103950000A951746884683460024DDF830A009E022
:1039600004EB080153462A4658460097FFF7F2F841
:103970004D44641CB442F3DBBDE8F88F0B460929C3
:1039800000D90923012807D0022809D003280BD128
:103990001146184600F052B81146184600F006B815
:1039A0001146184600F026B87047000070B5104D5B
:1039B0000400287817D000F06BF86FF0180044432B
:1039C0004FF47A7000EB840002F040F9002128786F
:1039D00000F05EF82878401CC0B22870052801D19C
:1039E0000120287070BDBDE8704000F051B80000A3
:1039F0009501002070B5104D0400687817D000F0D4
:103A000047F86FF0180044434FF47A7000EB8400DD
:103A100002F01CF90021687800F03AF86878401E3E
:103A200010F0FF00687001D10420687070BDBDE81F
:103A3000704000F02DB800009501002070B50C46D4
:103A40000546FFF7B3FF21462846BDE87040FFF763
:103A5000D1BF000038B501210C2000F0FFFC182078
:103A60008DF8030003248DF80240C020ADF800005B
:103A700069460548FFF73EF9ADF80040694603483E
:103A8000FFF738F938BD000000080140000C014084
:103A900003461048C1F16402012B0AD0022B0DD05D
:103AA000032B10D0042B13D1642911D891B201F04B
:103AB00077BA64290CD891B201F06CBA642907D89E
:103AC00091B201F069BA642902D891B201F066BAE4
:103AD000704700000004004002461548012A0BD040
:103AE000022A11D0032A17D0042A1FD101291BD082
:103AF0005FF0640101F054BA012903D05FF0640162
:103B000001F048BA0021FBE7012903D05FF064010E
:103B100001F042BA0021FBE7012903D05FF0640104
:103B200001F03CBA0021FBE70021E3E77047000009
:103B30000004004070B50024C4F16405E9B202201D
:103B4000FFF7A6FFE9B20320FFF7A2FFE9B20420C6
:103B5000FFF79EFF142002F079F8641C642CEBDB65
:103B600001210846FFF7B8FF642002F06FF8022138
:103B70000120FFF7B1FF01210220FFF7ADFF642014
:103B800002F064F802210846FFF7A6FF0121032096
:103B9000FFF7A2FF642002F059F802210320FFF78B
:103BA0009BFF01210420FFF797FF642002F04EF8ED
:103BB00002210420FFF790FF01210320FFF78CFF73
:103BC000642002F043F802210320FFF785FF012162
:103BD0000220FFF781FF642002F038F80221084636
:103BE000FFF77AFF01210846FFF776FFBDE8704036
:103BF000642002F02BB810B50024C4F16400C1B2F7
:103C00000120FFF745FFE1B20220FFF741FFE1B2DB
:103C10000320FFF73DFFE1B20420FFF739FF142036
:103C200002F014F8641C642CE7DB02210120FFF78A
:103C300053FF642002F00AF801210846FFF74CFF09
:103C400002210846FFF748FF642001F0FFFF022130
:103C50000846FFF741FF02210320FFF73DFF6420E4
:103C600001F0F4FF01210320FFF736FF02210420B9
:103C7000FFF732FF642001F0E9FF01210420FFF784
:103C80002BFF02210320FFF727FF642001F0DEFF56
:103C900001210320FFF720FF02210846FFF71CFF48
:103CA000642001F0D3FF01210220FFF715FF02215C
:103CB0000120FFF711FFBDE81040642001F0C6BFEE
:103CC00070B50D4606460024285D012804F1010068
:103CD000C0B208D05FF00001FFF7DAFE641CE4B266
:103CE000042CF1D370BD3146F6E7000008B5012180
:103CF000082000F0B3FBC020ADF8000010208DF8C4
:103D0000030003208DF8020069460248FEF7F2FF27
:103D100008BD0000000C01402DE9F04F8DB00CAC47
:103D200006ADCDE900540BAB07AA04A902A802F026
:103D300013F90028F5D1BDF818006F4CC0057DD5EA
:103D4000079808F0ABFB6FF01D05294608F075FDDC
:103D50000746E060089808F0A1FB294608F06DFDD1
:103D600080462061099808F099FB294608F065FD16
:103D7000064660610A9808F091FB294608F05DFD4F
:103D80000546A0610121384608F057FD314608F08C
:103D9000B1FB06464FF040473946404608F0AAFBC3
:103DA000294608F0A7FB314608F012FA08F0E4F9BA
:103DB00001F0F4FBDFF844914FF0663842464B4681
:103DC00007F0CAFE07F0B2FBE06160690121054619
:103DD00008F033FD8246294608F08CFB0546206931
:103DE0003946074608F086FB394608F083FB29462A
:103DF00008F04CFC4FF07E5108F0EAF908F0BCF9ED
:103E000005460E460121E06808F017FD394608F026
:103E100071FB07465046A16908F06CFB394608F073
:103E2000D7F908F0A9F92A46334601F0FFFD4246CA
:103E30004B4607F091FE07F079FB00E040E020627E
:103E4000A1690191084608F055FB616907460846DB
:103E5000009108F04FFB216906468B46584608F052
:103E600049FBE16805468A46504608F043FB29466F
:103E700008F0AEF9314608F009FC394608F006FCB6
:103E800008F07AF905460E465046019908F032FBD3
:103E900007465846009908F02DFB394608F098F976
:103EA000012108F0CAFC08F067F92A46334601F000
:103EB000BDFD42464B4607F04FFE07F037FB606200
:103EC000BDF9180010F0700F08D0BDF80810E1809F
:103ED000BDF80A102181BDF80C106181000708D5DA
:103EE000BDF810002080BDF812006080BDF81400FD
:103EF000A0800DB0BDE8F08F6401002066A64C40A4
:103F000070B504F02FF908B1002070BD2FA0FCF7A8
:103F100005FA782004F01CFE08B135A04EE03FA061
:103F2000FCF7FCF9782004F04FF808B143A045E015
:103F30004EA0FCF7F3F9142004F0CAFD08B154A018
:103F40003CE05CA0FCF7EAF901F0FCFF08B163A0DB
:103F500034E071A0FCF7E2F97C48044602F0B2FEBE
:103F60000546E01C02F0AEFE45EAC005A01D02F0C9
:103F7000A9FE45EA801080B202F092F908B174A05F
:103F80001CE07FA0FCF7CAF940F2731001F0B2FE0A
:103F900008B185A012E090A0FCF7C0F9142002F04F
:103FA000E7F808B195A009E09FA0FCF7B7F905F084
:103FB0001DFD012004F0B2FC18B1A4A0FCF7AEF97D
:103FC000A2E7ADA0FCF7AAF9012070BD6D707520C5
:103FD000696E697469616C697A6174696F6E206376
:103FE0006F6D706C6574652E2E2E2E2E2E0A0000BD
:103FF0006D70755F7365745F73656E736F72206348
:104000006F6D65206163726F7373206572726F727A
:10401000202E2E2E2E2E2E0A000000006D70755FB1
:104020007365745F73656E736F7220636F6D706C10
:10403000657465202E2E2E2E2E2E0A006D70755F53
:10404000636F6E6669677572655F6669666F206328
:104050006F6D65206163726F7373206572726F722A
:10406000202E2E2E2E2E2E0A000000006D70755F61
:10407000636F6E6669677572655F6669666F2063F8
:104080006F6D706C657465202E2E2E2E2E2E0A00FC
:104090006D70755F7365745F73616D706C655F7271
:1040A000617465206572726F72202E2E2E2E2E2E58
:1040B0000A0000006D70755F7365745F73616D70E9
:1040C0006C655F7261746520636F6D706C6574659B
:1040D000202E2E2E2E2E2E0A00000000646D705F02
:1040E0006C6F61645F6D6F74696F6E5F6472697627
:1040F00065725F6669726D7761726520636F6D6569
:10410000206163726F7373206572726F72202E2E3E
:104110002E2E2E2E0A000000646D705F6C6F61649D
:104120005F6D6F74696F6E5F6472697665725F66EA
:1041300069726D7761726520636F6D706C6574650F
:10414000202E2E2E2E2E2E0A000000008C01002084
:10415000646D705F7365745F6F7269656E746174AE
:10416000696F6E20636F6D65206163726F7373207A
:104170006572726F72202E2E2E2E2E2E0A000000D7
:10418000646D705F7365745F6F7269656E7461747E
:10419000696F6E20636F6D706C657465202E2E2EB6
:1041A0002E2E2E0A00000000646D705F656E616245
:1041B0006C655F6665617475726520636F6D6520FF
:1041C0006163726F7373206572726F72202E2E2E70
:1041D0002E2E2E0A00000000646D705F656E616215
:1041E0006C655F6665617475726520636F6D706C78
:1041F000657465202E2E2E2E2E2E0A00646D705FA3
:104200007365745F6669666F5F7261746520636F62
:104210006D65206163726F7373206572726F7220B7
:104220002E2E2E2E2E2E0A00646D705F7365745F25
:104230006669666F5F7261746520636F6D706C652F
:104240007465202E2E2E2E2E2E0A00006D70755FA6
:104250007365745F646D705F737461746520636F00
:104260006D65206163726F7373206572726F722067
:104270002E2E2E2E2E2E0A006D70755F7365745FC4
:10428000646D705F737461746520636F6D706C65CD
:104290007465202E2E2E2E2E2E0A0000FEE770476B
:1042A00070B50F23C47801780122F4B1144C24684E
:1042B000457804F4E064C4F5E064240AC4F104061B
:1042C000E3408478B5401C402C4301F1E0212301F8
:1042D00081F80034007800F01F018A404009800016
:1042E00000F1E020C0F8002170BD01F01F00824005
:1042F0004809800000F1E020C0F8802170BD000076
:104300000CED00E0024908430249086070470000D4
:104310000000FA050CED00E008B50121082000F0CE
:104320009DF84FF44060ADF8000010208DF80300B8
:1043300001208DF8020069460148FEF7DBFC08BD4C
:10434000000C01402DE9F041154F054600244FF4C3
:1043500000684FF48066002231463846FEF753FD70
:10436000280601D5012200E0002241463846FEF72A
:104370004AFD6806050E012231463846FEF743FD28
:10438000641CE4B2082CE6D3002231463846FEF71E
:104390003AFD31463846BDE8F0410122FEF733BD13
:1043A000000C014070B501220B4D940221462846B5
:1043B000FEF729FD0122D60231462846FEF723FDED
:1043C000002231462846FEF71EFD21462846BDE85C
:1043D00070400022FEF717BD000C014070B50D4D76
:1043E0004FF48064002221462846FEF70CFD66004B
:1043F000002231462846FEF706FD012231462846B6
:10440000FEF701FD21462846BDE870400122FEF777
:10441000FABC0000000C0140034A516821F44041FD
:10442000014351607047000000100240044A002917
:10443000D16901D0014300E08143D16170470000A0
:1044400000100240044A0029116901D0014300E034
:10445000814311617047000000100240044A0029A6
:10446000916901D0014300E08143916170470000F0
:1044700000100240044A0029D16801D0014300E045
:104480008143D160704700000010024030B51F49E1
:104490004A6812F00C031E4A03D0042B01D0082BEB
:1044A00021D002604A680F231A4C03EA1212A35C5F
:1044B0000268DA4042604B68072505EA1323E35C93
:1044C00022FA03F383604B6805EAD323E35CDA4006
:1044D000C2604968032303EA9131231F595CB2FB90
:1044E000F1F1016130BD4A684B6802F470124FF07F
:1044F000020413F4803F04EB924202D04B689B030A
:1045000001D5054B00E0024B5A43CAE700100240B8
:1045100000127A001C01002000093D002DE9F8433B
:104520001F46DDF820900D46064680281FD2402DFC
:104530001DD2B018802802D3C6F1800082B2E819DB
:10454000402802D3C5F1400087B2002406EB0208E0
:104550000BE0281983B281B21FFA88F23046CDF8F9
:10456000009000F006F8641CE4B2BC42F1D9BDE84A
:10457000F8832DE9FC4F1D4614460E460746802859
:1045800000D37F27802C00D37F24402E00D33F26EA
:10459000402D00D33F25A74201D2E01B00E0381B8D
:1045A0000FFA80F9AE4201D2A81B00E0701B0FFA8F
:1045B00080FA4FF0FF30A74201D2012100E001460E
:1045C0000191AE4200D2012083464846D14501DC2C
:1045D000CAF1000000EBD07040F34F08B9F1000FB2
:1045E00023D0BAF1000F35D0C9F100000090314658
:1045F00038460B9A00F042F8A74201D1AE4227D0CC
:1046000000994046884506DDA8EB0A010FFA81F8BB
:10461000019939448FB25045E9DA08EB09000FFAE5
:1046200080F806EB0B0086B2E1E7B54202D22846DD
:10463000354686B2BC4200D2A7B234B206E0A1B27F
:1046400038460B9A00F01AF8641C24B2AC42F6DD2E
:10465000BDE8FC8FB54200D2AEB2BC4202D22046C9
:104660003C4687B23DB206E0A8B231460B9A00F054
:1046700005F86D1C2DB2A542F6DDE9E770B580287E
:1046800013D2402911D20B4B012401F007051E79EA
:10469000AC40094BC90800EBC1100EB132B101E0CA
:1046A000012A03D0195CA143195470BD195C214340
:1046B000FAE70000320100204802002028B1FF2262
:1046C0004FF480610248FCF76EB90022F8E7000061
:1046D0004802002070B50E4D002400BF04F1B00068
:1046E000C0B2002100F016F80021084600F012F8D0
:1046F0000021102000F00EF805EBC41040228021AC
:1047000000F01AF8641CE4B2082CE7D370BD000076
:104710004802002070B50D460446FFF743FE78209E
:10472000FFF710FE2846FFF70DFE2046FFF70AFEB2
:10473000BDE87040FFF752BE70B514460D46064600
:10474000FFF730FE7820FFF7FDFD2046FFF7FAFD6A
:10475000002404E0305DFFF7F5FD641CA4B2AC4218
:10476000F8D3BDE87040FFF739BE000010B5002156
:10477000AE20FFF7CFFF00212020FFF7CBFF002165
:104780001020FFF7C7FF0021B020FFF7C3FF002173
:10479000C820FFF7BFFF00210846FFF7BBFF00213D
:1047A0001020FFF7B7FF00214020FFF7B3FF0021E3
:1047B0008120FFF7AFFF0021FF20FFF7ABFF0021B3
:1047C000A120FFF7A7FF0021A620FFF7A3FF0021EC
:1047D000A820FFF79FFF00213F20FFF79BFF00214C
:1047E000A420FFF797FF0021D320FFF793FF0021BC
:1047F0000846FFF78FFF0021D520FFF78BFF002130
:10480000F020FFF787FF0021D920FFF783FF002169
:104810002220FFF77FFF0021DA20FFF77BFF002136
:104820001220FFF777FF0021DB20FFF773FF002145
:104830002020FFF76FFF00218D20FFF76BFF002185
:104840001420FFF767FF0021AF20FFF763FF002070
:10485000FFF734FFFFF73EFF03480021018041804E
:104860000121417110BD0000320100200CB5002172
:10487000264801910091026842F4803202604FF4B0
:10488000A063026802F400320092019A521C019265
:10489000009A12B9019A9A42F3D10268920333D571
:1048A000012100911A490A6842F010020A600A6860
:1048B00022F003020A600A6842F002020A604168BC
:1048C000416041684160416841F4806141604168F4
:1048D00021F47C114160416841F4E81141600168B4
:1048E00041F08071016001688901FCD5416821F0C7
:1048F00003014160416841F0020141604168C1F338
:1049000081010229FAD10CBD00910CBD00100240BA
:10491000002002404FF0E0210428086903D020F075
:1049200004000861704740F00400FAE710B506F093
:1049300075FB012803D0BDE8104005F0F1BF10BDA4
:104940000F4810B5016841F00101016041680D4A4E
:104950001140416001680C4A11400160016821F476
:1049600080210160416821F4FE0141604FF41F0184
:104970008160FFF77BFF05494FF00060086010BDC4
:10498000001002400000FFF8FFFFF6FE08ED00E017
:1049900010B501218C07204600F0D8F900281CD062
:1049A0000121204600F002F90C480168491C016011
:1049B0000B4890F83820002A0FD00A4AD2F810216C
:1049C000012A0AD14FF47A7291FBF2F302FB131120
:1049D000002902D1418F491C418710BD2C010020C4
:1049E00034000020008021427FB50C46054601219D
:1049F0000846FFF71BFDADF800400020ADF804505D
:104A0000ADF80600ADF802004FF08044694620463C
:104A100000F0CCFA01221146204600F0A3F91C2038
:104A20008DF80C0002208DF80D0001218DF80E107C
:104A30008DF80F1003A8FFF733FC0121204600F08A
:104A4000B8F87FBD30B587B001210220FFF7EEFC3A
:104A5000254D284600F0C2F84720ADF8100063202D
:104A6000ADF814000024ADF81240ADF8164004A9CA
:104A7000284600F09BFA6020ADF800000120ADF858
:104A80000200ADF80640ADF808406946284600F03F
:104A900071F96946284600F0B3F96946284600F0E6
:104AA000F9F96946284600F039FA0821284600F04D
:104AB000A1F90821284600F0E3F90821284600F072
:104AC00027FA0821284600F05BFA0121284600F069
:104AD0007AF801221E21284600F044F901212846D7
:104AE00000F067F807B030BD0004004010B50F4C6F
:104AF0000121204600F02AF9002815D00C490A8827
:104B0000500402D542F4004008804888420402D58F
:104B100040F4004048800121204600F047F8BDE8FD
:104B20001040002000F032B810BD00000008004026
:104B30009C0100207FB50C46054601210420FFF7AB
:104B400075FCADF80450ADF8004000240E4DADF8F2
:104B50000640ADF802406946284600F027FA0122D7
:104B60001146284600F0FEF81E208DF80C008DF846
:104B70000D4002208DF80E0001208DF80F0003A8D3
:104B8000FFF78EFB7FBD000000080040010010B55C
:104B9000054805D00021044600F005FA0121204611
:104BA000BDE8104000F005B800080040C94301828C
:104BB00070470029018802D041F0010101E021F095
:104BC000010101807047002930F8441F02D041F4F0
:104BD000004101E0C1F30E01018070474B4910B55F
:104BE000884202D10121C41486E0B0F1804F09D07F
:104BF000474988420DD101210220FFF723FC002103
:104C0000022064E001210846FFF71CFC002101207E
:104C10005DE04049884206D101210420FFF712FCE3
:104C20000021042053E03C49884206D1012108209C
:104C3000FFF708FC0021082049E03849884206D1E6
:104C400001211020FFF7FEFB002110203FE0344936
:104C5000884206D101212020FFF7F4FB002120200B
:104C600035E03049884202D10121441444E02E4904
:104C7000884202D10121CC043EE02C49884202D175
:104C800001210C0538E02A49884202D101214C0556
:104C900032E02849884206D101214020FFF7D2FBAB
:104CA0000021402013E02449884206D101218020C0
:104CB000FFF7C8FB0021802009E0204988420AD183
:104CC000841501212046FFF7BDFB00212046BDE8E9
:104CD0001040FFF7B7BB1A49884202D101210C04EA
:104CE0000AE01849884202D101214C0404E0164927
:104CF00088420AD101218C042046FFF7BBFB2046E5
:104D0000BDE810400021FFF7B5BB10BD002C0140ED
:104D10000004004000080040000C0040001000406B
:104D20000014004000340140004C0140005001409C
:104D30000054014000180040001C004000200040CA
:104D4000004001400044014000480140024600206C
:104D5000138A92890B4202EA010202D0002A00D093
:104D600001207047002A828901D00A4300E08A436B
:104D70008281704730B5028C22F001020284028CDD
:104D80008388048B22F0020224F073050C882C43E4
:104D90000D8915434A882A43114DA8420BD0114D65
:104DA000A84208D0104DA84205D0104DA84202D00C
:104DB0000F4DA8420DD122F008054A8923F4407313
:104DC0002A4322F004058A882A438D891D43CB8912
:104DD0002B4383800483C9888186028430BD000010
:104DE000002C0140003401400040014000440140DB
:104DF00000480140028B22F008020A4302837047F8
:104E000070B5028C22F010020284028C8488038B1D
:104E10000D8823F4E6464FF6FF7303EA0525354374
:104E20000E8922F0200203EA061616434A8803EA96
:104E300002123243104EB04202D0104EB04215D191
:104E400022F080064A8924F4406403EA02123243C5
:104E500022F040068A8803EA021232438E8903EA6E
:104E600086062643CC8903EA840434438480058380
:104E7000C9880187028470BD002C014000340140C4
:104E8000028B4FF6FF7322F4006203EA0121114303
:104E90000183704770B5028C22F480720284028C08
:104EA0008488838B0D8823F073031D4322F40073E1
:104EB0000E894FF6FF7202EA06261E434B8802EA6D
:104EC00003233343104EB04202D0104EB04215D1EE
:104ED00023F400664B8924F4405402EA032333434D
:104EE00023F480668B8802EA032333438E8902EA27
:104EF00006162643CC8902EA041434438480858351
:104F0000C9888187038470BD002C014000340140B2
:104F1000828B22F008020A438283704770B5028CAC
:104F200022F480520284048C8288838B0D8823F4BF
:104F3000E6464FF6FF7303EA0525354324F4005691
:104F40000C8903EA043434434E8803EA06362643C8
:104F5000094CA04202D0094CA04205D122F4804461
:104F60008A8903EA8212224382808583C988A0F855
:104F70004010068470BD0000002C01400034014048
:104F8000828B4FF6FF7322F4006203EA0121114382
:104F9000818370478186704701877047818770479A
:104FA000A0F84010704781847047000030B5028837
:104FB0001B4B1C4C98420DD0A0420BD0B0F1804F3F
:104FC00008D0194DA84205D0184DA84202D0184D5E
:104FD000A84203D122F070054A882A43154DA84201
:104FE00006D0154DA84203D022F44075CA882A4342
:104FF00002808A8882850A88028598420AD0A04267
:1050000008D00E4A904205D00D4A904202D00D4A77
:10501000904201D1097A01860121818230BD0000D0
:10502000002C014000340140000400400008004012
:10503000000C0040001000400014004000400140FF
:10504000004401400048014070B5184C40F2255121
:10505000204600F0CBF8002823D0204600F054F979
:10506000134CC5B2208801041BD4A188B1F5FA7F86
:1050700018D2104E00213046FFF795FF208838B92E
:10508000301420800020A08001213046FFF791FDE0
:10509000A08809490144401CA0800D702088401C54
:1050A000208070BD40F40040FAE700000038014065
:1050B0009C010020000800405806002070B5184CE4
:1050C00040F22551204600F091F8002823D02046D8
:1050D00000F01AF9134CC5B2608801041BD4E188B2
:1050E000B1F5FA7F18D2104E00213046FFF75BFF72
:1050F000608838B9301460800020E080012130469B
:10510000FFF757FDE08809490144401CE0800D701D
:105110006088401C608070BD40F40040FAE70000E9
:10512000004400409C01002000080040BC06002014
:105130002DE9F041002406462546094F09E038468E
:1051400002885206FCD500F0E3F8641C6D1CE4B242
:10515000EDB2315D0029F2D12846BDE8F0810000B2
:10516000004400400029818902D041F4005101E04F
:1051700021F4005181817047174910B588420AD146
:1051800001218C032046FFF775F92046BDE8104049
:105190000021FFF76FB91149884202D101214C0467
:1051A00010E00F49884202D101218C040AE00D4928
:1051B000884202D10121CC0404E00B4988420AD183
:1051C00001210C052046FFF73DF92046BDE81040BF
:1051D0000021FFF737B910BD0038014000440040FE
:1051E00000480040004C00400050004030B501F045
:1051F0001F0201240025C1F3421304FA02F2012B1D
:105200000FD0022B0FD0838A4FEA1121008813425E
:1052100004FA01F400EA040001D000B10125284697
:1052200030BD8389F0E7038AEEE710B5C1F342137E
:1052300001F01F040121A140012B07D0022B07D050
:105240001430002A026805D00A4304E00C30F8E765
:105250001030F6E78A43026010BD000030B5044606
:10526000008A85B00D464CF6FF710840E98801437D
:105270002182A1894EF6F3100140A8882A891043A3
:105280006A890A431043A081A08A4FF6FF41084073
:10529000A9890143A1826846FFF7F8F819488442BA
:1052A00001D1039800E00298A189090400EBC00134
:1052B00001EB0010296801D5490000E08900B0FB2E
:1052C000F1F06422B0FBF2F109010B096FF018054F
:1052D0006B4300EB8300A3891D044FF0320306D516
:1052E00003EBC000B0FBF2F000F0070005E003EBB9
:1052F0000010B0FBF2F000F00F000843208105B071
:1053000030BD0000003801408088C0F308007047BD
:10531000C1F3080181807047FEE7000001498882DF
:1053200000207047280200200149C88200207047F1
:1053300028020020490050EAC12018BF04204A0D6D
:1053400018BF40F0010040F2FF72B2EB515F08BF9E
:1053500040F00200012808BF052070472DE9F04108
:105360004F1E00EBC7010446D1E9000115461E4659
:1053700037F006020DD02A46334606F0EDFB7F1EBD
:1053800004EBC703D3E9002306F002F937F0060265
:10539000F1D1022F25D0042F13D0062F18BFBDE85E
:1053A000F0812A46334606F0D7FBD4E90A2306F0FB
:1053B000EFF82A46334606F0CFFBD4E9082306F07F
:1053C000E7F82A46334606F0C7FBD4E9062306F081
:1053D000DFF82A46334606F0BFFBD4E9042306F083
:1053E000D7F82A46334606F0B7FBD4E9022306F085
:1053F000CFF82A46334606F0AFFBD4E90023BDE8D8
:10540000F04106F0C5B8012207F0E9B906F0C0B8CE
:10541000002213461046114606F076B940F20132DA
:1054200000204FF0E04107F0DAB90000024A002006
:10543000110707F0D4B9000001FDFFFF10B50446C5
:10544000D1E9000100F002F8206010BDF8B5044673
:105450000D466A4601F0D4F800987E30009000288E
:105460001FDC002213462046294606F0A5FA18D074
:10547000002140F608004FF000000646204629466D
:1054800006F054F8044640F6080006EA00014FF022
:10549000000034F0004004BF0220FBF755FB20461B
:1054A000F8BD0098FF280DDB0220FBF74DFB002222
:1054B00013462046294606F04DFC8CBF04484FF0A9
:1054C000FF40F8BD20462946BDE8F84006F02EB85A
:1054D000000080FF10B504460A46D4E900031946CF
:1054E00001F0CEFCC4E9000110BD30380A2801D219
:1054F0000120704700207047704700002DE9FE4FE3
:1055000007460E460025684601F0A6F800246FF015
:105510000F0AE8464FF0010957F8240056F8241006
:10552000401A00D5404206F0B9FF514607F085F910
:1055300058F8241011F0FF4F0BD006F0B1FE4FF0D9
:105540007E5107F0A3F80A4920F00040884205DCAC
:1055500007E0084908440849884202D309FA04F0E0
:105560000543641C032CD7DB2846BDE8FE8F0000F2
:10557000295C0F3E666666C19A99D900064C607F29
:10558000022804D005210120FDF740FE20811420CF
:1055900004F090FFF3E70000340000202DE9F04D07
:1055A0008D4F21F0004A86B005460C46BA452ADBED
:1055B000AAEB070028430AD08848824501DC1AD1AB
:1055C000CDB106B02846BDE8F04DFFF71CBF844AB8
:1055D000844B284606F0C0FA07460E46824A834BA3
:1055E0002846214606F0B8FA06B03A463346BDE8EA
:1055F000F04D05F0CDBF0120FBF7A6FA06B0BDE8DF
:10560000F04DFFF705BF7A48824542DABAF1795F7B
:105610000BDA2846FFF78EFE042808BFFFF706FFC7
:10562000284606B02146BDE8F08D2A460B461046B6
:1056300006F092FA834602466E480E460B46062155
:105640007844FFF78BFE5A46334606F085FA8046CB
:1056500069488A465A46334604217844FFF77EFE5D
:105660005A46334606F078FA00223B4605F090FF92
:1056700002460B464046514606F046F82A46234667
:1056800006F06AFA06B02A462346BDE8F04D05F05A
:105690007FBF284624F0004100223D463B4606F0ED
:1056A0008FFB4FF0FF3207F09AF806460246534848
:1056B0000F460B4606217844FFF750FE32463B4624
:1056C00006F04AFACDE900014D4832463B46042136
:1056D0007844FFF743FE32463B4606F03DFA00228F
:1056E0002B4605F055FF834602913046394604F0BB
:1056F00011FA804643480D46504517DCDDE90001AC
:105700005A46029B06F000F842462B4606F024FA61
:1057100042462B4605F03CFF012207F060F8304A74
:10572000304B06F03FFC304A304B4CE04FF0000A63
:1057300052460B46404605F02BFFCDE9031052467A
:105740002B461046194606F007FA32463B4606F04D
:1057500037FBDDE9033205F0D7FF06460F46DDE9EA
:1057600000015A46029B05F0CFFF834600910122BB
:105770003046394607F033F8194A1A4B06F020FB39
:1057800006460F4601224046294607F028F85A46A9
:10579000009B06F0E1F932463B4606F003FC064664
:1057A0000F4601225046294607F019F80E4DDFF842
:1057B00058802A46434606F003FB32463B4606F035
:1057C000FFFA2A46434606F0FBFA002CD8BF81F0C8
:1057D000004106B0BDE8F08D0000F03F0000F07F12
:1057E000075C143326A6913C182D4454FB21F93F45
:1057F0000000E03FCC990000E299000056990000BB
:105800006C9900003333EF3FFB21E93F2DE9F84F5E
:1058100004460D4621F0004000917349814211DC9D
:105820007249884201DC06D12CB120462946BDE8E8
:10583000F84FFFF7E8BD6E48002DCCBF6D496E49AB
:10584000BDE8F88F6D49814211DD6D498142D8BFB5
:105850004FF0FF366DDD20462946FFF76BFD04282B
:1058600008BFFFF7E3FD20462946BDE8F88F6549EC
:10587000654F25F00045814233DD6449814219DDE1
:10588000002632464FF080432046294605F080FE30
:1058900080468A4601222046294606F0A0FF0022C3
:1058A0003B4606F07FFB4246534605F02DFF04467B
:1058B0000D463EE001260022BA463B4620462946D8
:1058C00005F066FE80460F460022534620462946D4
:1058D00006F068FB42463B4605F016FF04460D46BF
:1058E00027E04B4981421BDDDFF828A10226002278
:1058F00053462046294606F02FF900223B4605F084
:1059000047FE80460F46002253462046294606F0B1
:1059100049FB42463B4605F0F7FE04460D4608E0CB
:10592000032622462B4600203B4905F0EDFE0446A7
:105930000D4622462B461046194606F00DF98B46B9
:10594000824602460B4606F007F9074602463348F0
:1059500088460B4606217844FFF700FD52465B4619
:1059600006F0FAF882462E488B463A464346052111
:105970007844FFF7F3FC3A46434606F0EDF802465A
:105980000B46002E504659460CDA05F001FE224621
:105990002B4606F0E1F801B022462B46BDE8F04F59
:1059A00006F00EBA05F0F4FD22462B4606F0D4F8B8
:1059B0001C4A7A4402EBC603D3E9002306F0F2FA4C
:1059C00022462B4606F0EEFA174A7A4402EBC6034B
:1059D000D3E9002306F0F4F9009A002AB8BF81F059
:1059E0000041BDE8F88F0000000010440000F07F87
:1059F000182D4454FB21F93FFB21F9BF0000DC3F87
:105A00000000203E0000F33F0000F03F0000E63FB2
:105A1000008003400000F83F0000F0BF6E970000D8
:105A20002C970000CA960000929600002DE9F04DD8
:105A30009446CCF1000423F000464CEA0404524F93
:105A400046EAD4749A46884621F00042BC4206D801
:105A5000454240EA050442EAD474BC4204D9BDE898
:105A6000F04D6246FFF7D2BCAAF14055A5F17F6523
:105A700055EA0C040BD0022404EAAA74434DDFF863
:105A800010E144EAD87452EA000B04D00CE0BDE8FF
:105A9000F04DFFF7BBBE002C14BF012CBDE8F08D0C
:105AA000022C30D0032C32D056EA0C0B0AD0BE4266
:105AB00020D1BA4209D126F0804622F080423346F6
:105AC000114617E000291ADB25E0DFF8C8B0FB44D7
:105AD000002C04BFDBE90001BDE8F08D012C02BF02
